:02000002D0002C
:1040000000400D0014740D00000006000C000501B6
:084010000401BD0B00000000DB
:0440180090660D00A1
:10401C0009480A49884208B505D0094A824202D0AB
:10402C00121A02F0EDFA0748074A0021121A02F0A0
:10403C00F5FA014808BD00BF50E5032084730D005C
:10404C00B8E50320B8E50320F0E7032070B5074E70
:10405C00074C01F0E7FEA41BA4080025A54200D1E3
:10406C0070BD56F8043B98470135F7E754730D00C3
:10407C0078730D0000F034B808B500F059F8BDE8BD
:10408C00084001F091BE01F063BC01F069BC000076
:10409C0008B5034A00210C2001F0BEFBFEE700BF6F
:1040AC00A5550D000078B0FA80F040097047012347
:1040BC0003707047044B00221A70044A1268D2072E
:1040CC0044BF01221A7070473CE6032040E60320EF
:1040DC0010B50446006808B101F042FC204610BD42
:1040EC0037B50021052002F0F5F90F4C002502210F
:1040FC00062002F0EFF94FF0FF3302220B49009536
:10410C00062001F0BDFF204600F0ECFC204600F03C
:10411C00F5FE0121204600F096FC4FF001132561BD
:10412C00636103B030BD00BFCCE50320C1400D007E
:10413C0070B51D4D284600F0FEFC1C4B1B7803F09F
:10414C00FF060BBB052002F0EFF9E8B1184C236811
:10415C0028460133236000F0D1FE0121284600F0EF
:10416C0072FC24682E614FF00113002C6B6118DA7D
:10417C002D21284601F068FD61420B480A2201F00E
:10418C0072FD094801F026F9062002F0CDF918B1AC
:10419C00084A136801331360BDE87040C82001F071
:1041AC00C9BD2146E9E700BFCCE503203CE603206E
:1041BC00C8E5032040E6032038B50F4C0F4BA36035
:1041CC0000252560A580A571032001F02DFB0C4A6C
:1041DC000C4920460C4C02F0FBF92946012001F059
:1041EC0033FB0721204600F04FFC2046044A0749C8
:1041FC00BDE8384002F0ECB9BCE503200000FFFF3D
:10420C00B8E50320DD400D00CCE50320614A0D002C
:10421C00704710B51021044602F0DFF9204610BD9E
:10422C000EB403B503AB002153F8042B019301F03A
:10423C0038FD02B05DF804EB03B0704773B504466B
:10424C0008462279A36832B1A3B90B4902B0BDE884
:10425C00704001F0F5BC094A267B094D0949647B85
:10426C00012E18BF2946CDE900140749FFF7D8FFE6
:10427C0002B070BD054AEFE7B5660D00AC660D00E7
:10428C00B1660D00AD660D00CB660D00A4660D0089
:10429C002DE9F04F85B01F46BDF93880BDF83C3094
:1042AC00A8EB0209A7EB010AB9F1000FB8BFC9F1DD
:1042BC000009BAF1000FB8BFCAF1000AD145834614
:1042CC000C46154604DD3A462C4647460D469046AC
:1042DC00BC4205DD2A464546904622463C461746DA
:1042EC003E1BB2B20092A8EB0502002AB8BF5242A4
:1042FC000192C6F3C03202FA86F64545B4BF0122DC
:10430C004FF0FF3276100292BC421CDCDBF800202E
:10431C000393D145D2F81880C7BF294622462A46B6
:10432C0021465846C047019A039BB61AB1B236B221
:10433C00002E05DA029A1544009A56182DB236B2A0
:10434C00013424B2E0E705B0BDE8F08F704710B43B
:10435C0004682469A4465DF8044B604730B40468D3
:10436C00BDF808500295A46BA44630BC604730B42D
:10437C000468BDF808500295E46BA44630BC604755
:10438C0070B4BDF90C50BDF810600468CDE903564B
:10439C00246CA44670BC60472DE9F3411C460368AD
:1043AC00BDF820805B6905461646013C34440F4637
:1043BC0024B298472B68CDF8048000949C6A284658
:1043CC003B4632463946A0472B68DB6A284602B08A
:1043DC00BDE8F04118472DE9F3411D460368BDF8CF
:1043EC0020805B69044617460E469847CDE9007855
:1043FC0022686B1E3344956A20461BB23A463146FE
:10440C00A8472368DB6A204602B0BDE8F041184794
:10441C002DE9F3471E460368BDF928905B69BDF88A
:10442C002C800C460546174698472644B4422B6808
:10443C000BDACDF80080D3F820A021464B463A4643
:10444C0028460134D04724B2F0E7DB6A284602B094
:10445C00BDE8F047184713B502680191B0F90E108A
:10446C000091146CB0F90C3000221146A04702B038
:10447C0010BD2DE9F3471D460368BDF82C805B6920
:10448C00BDF9289004460F46164698472368CDF888
:10449C000080D3F824A032462B4639462046D0471C
:1044AC002368CDF8008009F1FF323244D3F824A000
:1044BC0039462B46204612B2D0472368CDF80080EF
:1044CC00D3F820A032464B4639462046D0476B1EC7
:1044DC00D9192368CDF800801D6A20464B46324618
:1044EC0009B2A8472368DB6A204602B0BDE8F04752
:1044FC00184770472DE9F74399421646BDF92870C5
:10450C00BDF82C90026880460D461C4613D1BE4265
:10451C00C8BF3346CDF82890C4BF3E461F467B1C0F
:10452C00946B9B1B1BB2324629464046A44603B0F3
:10453C00BDE8F0436047BE420AD19942C2BF0B4668
:10454C0025461C46631CCDF82890D46B5B1BE9E711
:10455C0053699847CDE90079D8F8003040469F6AF6
:10456C00324623462946B847D8F80030DB6A404625
:10457C0003B0BDE8F043184701F00303B0F90A207B
:10458C008376C907B0F9083059BF8381C281828113
:10459C00C381704730B54281C281074A074D018102
:1045AC00002481814FF0FF31C0E9051244600560A1
:1045BC0004610477046230BD01010001F06B0D0051
:1045CC002DE9F04F89B0CDE902120268BDF948809F
:1045DC000493BDF94C3052690593BDF850A00446C4
:1045EC00904718F107024FF0000648BF08F10E0281
:1045FC004FEAE20B01963546039B019ABDF9041074
:10460C009A18059B8B4212B227DD049B33444FF062
:10461C00000906930FFA89F080451FFA89F117DD1E
:10462C004F0705BF069BC0106D001D5C18BFEDB297
:10463C002B060AD5029B206807921944836909B29C
:10464C001F4620465346B847079A09F10109E1E78E
:10465C00019B013301935E44CEE72368DB6A20465D
:10466C0009B0BDE8F04F18472DE9F04F2DED028B46
:10467C0091B01646026ABDF874809DF878509DF88A
:10468C007C4003911F46BDF8703004938346002A8A
:10469C0040F0C580B0F90C308B4240F34C81B0F93E
:1046AC000E30B34240F34781062313FB0513002B56
:1046BC0040F3418106EBC403002B40F33C81037FA4
:1046CC001BB9AF2F84BF0137FFB2DBF8003058465F
:1046DC005B6998470522099200220592984A07EBDC
:1046EC008703D3180C93B3B20693059A0C9B9B5C6F
:1046FC000793ABB20B93BDF80C300893039B02FBF2
:10470C0005F919FA83F90FFA89F308EE103A082320
:10471C000A93039B02EB030A4FF000090FFA8AFA83
:10472C00079ADBF80030D20752D5012D1FFA89F217
:10473C003ED1012C3CD19B6906991F46049B0A442F
:10474C0012B251465846B84709F101034FFA83F9A2
:10475C00079B5B0807930A9B013B13F0FF030A932B
:10476C00DED1059F01377BB20593099B013B13F00A
:10477C00FF030993B9D1049B43450FD0012DDBF8FE
:10478C0000303BD1012C39D10899CDF8008005318E
:10479C001C6A3246082309B25846A047DBF80030A1
:1047AC00DB6A584611B0BDEC028BBDE8F04F1847E0
:1047BC00069914FB02F20A44049901910094DB69F6
:1047CC0018EE101A1F4612B22B465846B847BBE7D4
:1047DC00049A4245B8D0012D1FFA89F207D1012C59
:1047EC0005D19B6906991F460A444346A8E70699DA
:1047FC00CDF8048014FB02F20A44DFE70B9ACDF8E3
:10480C00048002EB8201089AE4000A4411460094E9
:10481C00DC6932462B4609B25846A047BEE7137AEC
:10482C00516812680D92FF1AFFB201EBC70331F801
:10483C00372006929A780992DA780B92012D93F927
:10484C00052093F906A00A9201D8012C57D9BDF97D
:10485C00283008930FFA8AF30793DBF80030584698
:10486C005B699847B3B24FF000080E931AFA86F3BF
:10487C00C14647460F930B9B9F428FD2079B0E9AC4
:10488C003B4403FB0423002205920F9A1BB202EB5C
:10489C00070A08EE103A0FFA8AFA4346099A059964
:1048AC00914241D25A1CD2B25B070C9207D1069BA3
:1048BC0006990D9A01339BB212F80190069319F0E8
:1048CC00800F12D0012DDBF80030BDF80C101AD17E
:1048DC00012C18D10A9A9B691144059A11441E4661
:1048EC005246049B09B25846B047059E0136F3B2B6
:1048FC004FEA490905935FFA89F90C9BCEE700232F
:10490C00CDE90733A9E70598089A024402FB051183
:10491C00049ACDE90042DB6918EE102A1E4609B252
:10492C002B465846B047E0E7099B013798445FFA9D
:10493C0088F8FFB29FE711B0BDEC028BBDE8F08F99
:10494C00E8660D00F0B5026A85B004460B46002AF5
:10495C0034D10A2908D1438A0282427E03EBC20376
:10496C006382012005B0F0BD0D29FAD0E17E007EF6
:10497C00657E71B1B4F91060062111FB0061B4F9C8
:10498C000C60B142C1BFB4F91210228201EBC50216
:10499C006282E28A0192A28A0092CDE90205B4F900
:1049AC001220B4F910102046FFF75EFE237E228AF7
:1049BC0003EB430302EB43032382D2E70A2907D11B
:1049CC0000230382937A417E428A01FB0323C7E7CB
:1049DC000D29C6D0157AA942C3D3517A9942C0D3B6
:1049EC0051685D1BEDB201EBC505AF782FB3E978CB
:1049FC0019B3E17E007E667E91B195F905103944BC
:104A0C00B4F9107000FB0171B4F90C70B94207DDF8
:104A1C0000272782B4F91210927A02FB06126282E6
:104A2C00E28A0192A28A0092CDE90206B4F9122020
:104A3C00B4F910102046FFF717FE2979237E228A3D
:104A4C0001FB0323B8E7012938BF01210176417628
:104A5C007047000010B5064B03600446006D08B1AA
:104A6C0000F0B2FD204600F0D1F8204610BD00BF8A
:104A7C00486C0D0010B50446FFF7ECFF2046702182
:104A8C0001F0ABFD204610BD30B585B004460D4697
:104A9C0001F076FD104A1149CDE901214FF0FF32AA
:104AAC008021034600922046202200F035F90C4B61
:104ABC0023600023C4E9143504F1580000F054F8C5
:104ACC0004F1600000F050F804F1680000F04CF8BC
:104ADC00204605B030BD00BF801A0600A08601003C
:104AEC00486C0D0013B50446503000F065FD636D45
:104AFC00D90705D50222042104F1580000F048F82A
:104B0C00636D9A0705D50022032104F1600000F0C3
:104B1C003FF8636D5B0705D50222114604F168006E
:104B2C0000F036F8012300933C220221204600F0CD
:104B3C00F3F902B010BD10B5436DD907044602D588
:104B4C00583000F032F8636D9A0703D504F1600019
:104B5C0000F02BF8636D5B0705D504F16800BDE828
:104B6C00104000F022B810BD00210A22C0E900124A
:104B7C007047002310B50446C171837188B201F0EF
:104B8C00D3FC08B10323A37100F00EFD206010BD0F
:104B9C0038B50C4605461146A0B201F09BFC2146E7
:104BAC002846BDE83840FFF7E4BF38B50446C07965
:104BBC0001F0BAFCA579003825F0080318BF0120D4
:104BCC00C5F340058542A3710AD000F0EDFCA37932
:104BDC00206083F00203A371A079C0F3C00038BD3C
:104BEC0000F0E2FC2368C01AA3889842F4D3A3799E
:104BFC0003F00103AB42EFD000F0D6FCA3792060A8
:104C0C0083F0010343F00803E5E7000010B5044B03
:104C1C0003600446C06A08B100F0A2FE204610BD35
:104C2C0054710D0010B50446FFF7F0FF20465021DB
:104C3C0001F0D3FC204610BD002910B54BDBB0F9B8
:104C4C000C408C4247DD002A45DBB0F90E40944203
:104C5C0041DD847E022C1FD0032C26D0012C04D1E4
:104C6C000489D24314440A4621B2012B23D0022BCF
:104C7C0032D083BB002A13460489C06AB8BFD31D47
:104C8C00DB1013FB041102F0070201239340425C7A
:104C9C0022EA030242541EE00489C9432144448998
:104CAC00D243224409B212B2DFE74489C9430C440F
:104CBC00114622B2D9E7002A04891346B8BFD31D86
:104CCC00DB1013FB0411C36A02F0070001228240BF
:104CDC00585C02435A5410BD002A13460489C06A1A
:104CEC00B8BFD31DDB1013FB041102F00702012324
:104CFC0003FA02F2435C5A40CCE710B5044690F933
:104D0C003600012180B201F0F6FB606A18B1BDE8F3
:104D1C00104000F09CBE10BD70B504461D46002628
:104D2C00FFF738FC114B2360666215B901F028FCC3
:104D3C000546FF2384F8333084F836309DF9103063
:104D4C0084F837300A4BA363012384F83C30059B6D
:104D5C00A3644FF6FF72069BA286C4E90A5626642A
:104D6C00A4F84460E364204670BD00BF54710D008C
:104D7C00A06C0D00F8B50446806A0D4690B194F90C
:104D8C00301001F071FAA06A036800219B68984703
:104D9C00A06A036829469B689847A06ABDE8F8405A
:104DAC0001F069BA94F93530014698B201F0A3FBD1
:104DBC00606A20B12946BDE8F84000F0CFBE082655
:104DCC00802794F9330005EA070180B201F093FBC8
:104DDC0094F93400012180B201F08DFB94F9340078
:104DEC00002180B201F087FB013E4FEA5707E8D162
:104DFC00F8BD38B50446806A0D4680B1A16C01F04F
:104E0C0025FA002D204614BFA721A621FFF7B2FFDB
:104E1C00A06A88B1E16CBDE8384001F017BA606A4D
:104E2C0018B104F1380100F02BFE94F93600002182
:104E3C0080B201F060FBE4E72046BDE83840FFF7A4
:104E4C005CBF2DE9F8430446806A0D468F1840B3C9
:104E5C0094F9301001F008FAA06A036800219B68ED
:104E6C0098470126BD42A06A17D01F2E0CD901F01D
:104E7C0002FA94F93010A06A01F0F6F9A06A0368FE
:104E8C0000219B6898470126A06A15F8011B03684E
:104E9C0001369B689847F6B2E4E7BDE8F84301F0A9
:104EAC00EAB994F93530014698B201F024FBAF42CF
:104EBC0022D0606A15F8019B18B1494600F04EFEED
:104ECC00F5E708264FF0800894F9330009EA080149
:104EDC0080B201F010FB94F93400012180B201F092
:104EEC000AFB94F93400002180B201F004FB013E6E
:104EFC004FEA5808E8D1DAE7BDE8F883B0F90A3090
:104F0C00DA1D48BF03F10E02B0F90830C06AD210A6
:104F1C005A43002101F082BB2DE9FF411E46C36AB2
:104F2C009DF8288004460F461546B3B12046FFF77E
:104F3C00E5FFB4F90A00B4F9081020281FDC20237F
:104F4C000122CDE90132203873237339009300EB31
:104F5C00D070894B01EBD1711FE0B0F90A30D81D2C
:104F6C0048BF03F10E00B4F90830C010584300F0EC
:104F7C00EFFCE0620028D9D104B0BDE8F0814023F9
:104F8C004FF0010CCDE9013C5223403852390093CB
:104F9C007A4B00EBD07001EBD17140F34F0241F32F
:104FAC004F012046FFF70CFBA06A84F831700028F3
:104FBC0078D0002D74D1B4F90A30202B0CBF3C25CD
:104FCC003D2584F83050B8F1000F01D001F042F9C2
:104FDC00FEB194F9370000281BDB012180B201F0EF
:104FEC0079FA94F93700012180B201F084FA01209A
:104FFC0000F0A0FE94F93700002180B201F07BFA9A
:10500C000A2000F097FE94F93700012180B201F0DC
:10501C0072FAA06A002874D0A16C01F017F904226E
:10502C0057492046FFF70DFFA17A0139C9B2204636
:10503C00FFF7A0FE534904222046FFF702FF94F924
:10504C003130012B0CBF102114212046FFF792FEAA
:10505C0004224D492046FFF7F4FEA3684B4A9342C5
:10506C005CD14B4904222046FFF7EBFED9212046A8
:10507C00FFF780FE94F93130012B0CBF2221F12176
:10508C002046FFF777FE204642490622FFF7D9FE5D
:10509C00A06A002863D0E16C01F0D8F801206BE71E
:1050AC006DB28EE794F93500012180B201F012FA4D
:1050BC0094F93600012180B201F00CFA94F9360013
:1050CC00012180B201F017FA656A3DB1B8F1000F09
:1050DC003FF47EAF284600F0A9FC79E794F9330041
:1050EC00012180B201F0F6F994F93400012180B26B
:1050FC0001F0F0F994F93400294680B201F0FBF983
:10510C0066E7606A18B104F1380100F0B9FC94F953
:10511C003600002180B201F0EEF980E71E4A93427E
:10512C000ED11E4903222046FFF78BFE94F9313035
:10513C00012B0CBF9F21CF212046FFF71BFE95E7CB
:10514C00174A934292D1174903222046FFF779FE62
:10515C0094F93130012B0CBF1021AF21ECE794F9FD
:10516C003600012180B201F0C6F9606A002895D0A2
:10517C0000F06DFC92E700BF6C6F0D00AC6C0D0085
:10518C00B4710D00B8710D00BC710D0080002000D1
:10519C00C6710D00C0710D0080004000CA710D0079
:1051AC0060001000CD710D0070B5002ABDF81050D4
:1051BC003DDBB0F90A40944239DD0029BEBF5B18D3
:1051CC001BB20021B0F90840CE18A642C4BF631A26
:1051DC001BB2002B2BDDC06AD61014FB0611014448
:1051EC0002F0070001228240012DD2B216D0022D0E
:1051FC000BD0E5B9D243D2B20B44994217D011F877
:10520C00010B104001F8010CF7E70B4499420ED04A
:10521C0011F8010B504001F8010CF7E70B449942CF
:10522C0005D011F8010B104301F8010CF7E770BD24
:10523C00F0B50029BDF8146076DBB0F90850A9422E
:10524C0072DA002ABCBFD21813B2B0F90A40B8BF48
:10525C000022D718A742C4BFA31A1BB2002B63DDD0
:10526C00C2F3C404C76A15FB041112F00702DBB2C7
:10527C0007EB010423D0C2F10802D2B22C4D9342A9
:10528C003CBF4FF0FF0CA2EB030EAD5C3CBF4CFAE5
:10529C000EFC0CEA0505012E07D0022E2ED04EB9BD
:1052AC0017F801C02CEA050503E017F801C045EA20
:1052BC000C057D54934237D3B0F908100C449A1A5C
:1052CC00D2B2072A0ED9022E1DD113462178C9431A
:1052DC002170083BB0F90810DBB2072B0C44F5D851
:1052EC0002F0070202B3134B012E9B5C19D0022E65
:1052FC001BD0CEB9227822EA030314E017F801C0C0
:10530C0085EA0C05D5E7002E14BFFF2500251346B2
:10531C002570083BB0F90810DBB2072B0C44F7D80A
:10532C00DEE7227813432370F0BD22785340FAE76E
:10533C00A4710D00AC710D0070B41446827EBDF8E2
:10534C000C60022A0DD0032A18D0012A11D102892F
:10535C00E443144424B203960A46214670BCFFF77A
:10536C0067BF42890589E44319441444691A24B27D
:10537C0009B20396224670BCFFF716BF4589194443
:10538C00691A09B2E7E730B41446827EBDF80850BA
:10539C00022A0DD0032A18D0012A11D1E21804894F
:1053AC00A41A24B202950A46214630BCFFF7FCBE73
:1053BC000289C9431144E2184489A41A09B224B2DF
:1053CC000295224630BCFFF733BF4289C9431144D2
:1053DC0009B2E7E72DE9F8430446806A002842D079
:1053EC00A16C00F033FF474905222046FFF729FD49
:1053FC00217A01392046C9B2FFF7BCFCB4F90A3056
:10540C00DE1D48BF03F10E06D4E90A052389F61008
:10541C0013FB06F615FA86F600283AD094F93010EC
:10542C0000F022FFA06A036840219B68984701277F
:10543C00B542A06A24D01F2F0CD900F01CFF94F9A0
:10544C003010A06A00F010FFA06A036840219B682E
:10545C0098470127A06A15F8011B036801379B6860
:10546C009847FFB2E4E7606A18B104F1380100F024
:10547C0007FB94F93600002180B201F03CF8B2E74A
:10548C0000F0F9FEA06A78B3E16CBDE8F84300F0D7
:10549C00DDBE94F93500012180B201F02CF8B54243
:1054AC00F0D0606A15F8019B18B1494600F056FB24
:1054BC00F5E708274FF0800894F9330009EA080152
:1054CC0080B201F018F894F93400012180B201F097
:1054DC0012F894F93400002180B201F00CF8013F6D
:1054EC004FEA5808E8D1DAE794F93600012180B286
:1054FC0001F001F8606A18B1BDE8F84300F0A7BAF2
:10550C00BDE8F883D0710D0008B5024B1B689B6891
:10551C00019308BD6802030008B5024B1B68DB68E9
:10552C00019308BD6802030008B5024B1B689B6819
:10553C00019308BD2C02030008B5024B1B68DB6805
:10554C00019308BD2C02030008B5024B1B681B69B4
:10555C00019308BD2C02030008B5024B1B685B6964
:10556C00019308BD2C02030008B5024B1B689B6914
:10557C00019308BD2C02030008B5024B1B68DB69C4
:10558C00019308BD2C02030008B5024B1B685B6835
:10559C00019308BD1802030008B5024B1B68DB68B9
:1055AC00019308BD1802030008B5024B1B685B6928
:1055BC00019308BD1802030008B5024B1B681B6B56
:1055CC00019308BD4802030008B5024B1B685B6BD6
:1055DC00019308BD4802030008B5024B1B685B6CC5
:1055EC00019308BD4802030008B5024B1B689B6C75
:1055FC00019308BD4802030008B5024B1B685B69A8
:10560C00019308BD6402030008B5024B1B681B68BC
:10561C00019308BD3C02030008B5024B1B68DB6814
:10562C00019308BD3C02030008B5024B1B681B69C3
:10563C00019308BD3C02030008B5024B1B685B6973
:10564C00019308BD3C02030008B5024B1B689B6923
:10565C00019308BD3C02030008B5024B1B68DB69D3
:10566C00019308BD3C02030008B5024B1B681B6A82
:10567C00019308BD3C02030008B5024B1B689B6AF2
:10568C00019308BD3C02030008B5024B1B681B6864
:10569C00019308BD2802030008B5024B1B68DB68A8
:1056AC00019308BD2802030008B5024B1B689B69D7
:1056BC00019308BD2802030008B5024B1B68DB6987
:1056CC00019308BD2802030008B5024B1B681B6A36
:1056DC00019308BD2802030008B5024B1B685B6AE6
:1056EC00019308BD2802030008B5024B1B689B6A96
:1056FC00019308BD2802030008B5024B1B68DB6A46
:10570C00019308BD2802030008B5024B1B681B6BF4
:10571C00019308BD2802030008B5024B1B685B6BA4
:10572C00019308BD2802030008B5024B1B681B6CD3
:10573C00019308BD2802030008B5024B1B681B68C7
:10574C00019308BD3002030008B5024B1B685B696E
:10575C00019308BD3002030008B5024B1B68DB69DE
:10576C00019308BD3002030008B5024B1B681B6A8D
:10577C00019308BD3002030008B5024B1B685B6A3D
:10578C00019308BD3002030008B5024B1B68DB6BAC
:10579C00019308BD3002030008B5024B1B681B6C5B
:1057AC00019308BD3002030008B5024B1B685B6C0B
:1057BC00019308BD3002030008B5024B1B681B683F
:1057CC00019308BD4C02030008B5024B1B681B6912
:1057DC00019308BD4C02030008B5024B1B685B69C2
:1057EC00019308BD4C02030008B5024B1B689B6972
:1057FC00019308BD4C02030008B5024B1B68DB6922
:10580C00019308BD4C02030008B5024B1B681B6AD0
:10581C00019308BD4C02030008B5024B1B685B6B7F
:10582C00019308BD6002030008B5024B1B685B685E
:10583C00019308BD2002030008B5024B1B685B698D
:10584C00019308BD2002030008B5024B1B68DB6AFC
:10585C00019308BD2002030008B5034B1B68D3F865
:10586C008830019308BD00002002030008B5034BEB
:10587C001B68D3F89430019308BD0000200203008C
:10588C0008B5024B1B685B68019308BD400203001E
:10589C0008B5024B1B689B68019308BD40020300CE
:1058AC0008B5024B1B68DB68019308BD400203007E
:1058BC0008B5024B1B681B69019308BD400203002D
:1058CC0008B5024B1B685B69019308BD40020300DD
:1058DC0008B5024B1B689B69019308BD400203008D
:1058EC0008B5024B1B68DB69019308BD400203003D
:1058FC0008B5024B1B681B6A019308BD40020300EC
:10590C0008B5024B1B681B6B019308BD40020300DA
:10591C0008B5024B1B685B6B019308BD400203008A
:10592C0008B5024B1B681B6C019308BD40020300B9
:10593C0008B5024B1B685B6C019308BD4002030069
:10594C0008B5024B1B68DB6B019308BD44020300D6
:10595C0008B5024B1B681B68019308BD1C020300B1
:10596C0008B5024B1B685B68019308BD1C02030061
:10597C0008B5024B1B685B6A019308BD1C0203004F
:10598C0008B5024B1B685B6C019308BD1C0203003D
:10599C00002240681146FFF7ABBF00224068114659
:1059AC00FFF7B6BF40680022FFF7AABF406800228D
:1059BC0081F00101FFF794BF002340681A46194695
:1059CC00FFF786BF002340681A461946FFF778BFD9
:1059DC00002240681146FFF76BBF00224068114659
:1059EC00FFF756BF406800220221FFF759BF002382
:1059FC0040681A46FFF744BF024B03225A60024A22
:105A0C001A60704750E60320E0710D000021FFF78B
:105A1C00C3BE0021FFF7C8BE10B50446084621706E
:105A2C00FFF79AFE00236360204610BD10B50446B4
:105A3C000078FFF7EBFF48B920784FF6FF71FFF7BE
:105A4C007BFE2078BDE81040FFF7E3BF10BD007867
:105A5C00FFF7DFBF400830B5186000241868884293
:105A6C00E5B206D90134082C02D040081860F5E7DD
:105A7C000725024B5B5D137030BD00BF14720D0027
:105A8C002DE9F04306468FB000780C46FFF7BEFFB9
:105A9C0000281BDB35781422002109A800F0BEFD7C
:105AAC000B23002209A92846ADF82430FFF764FE29
:105ABC009DF82D3013B19DF82C5055B10027B946E7
:105ACC00B846012523795DB1C3B100200FB0BDE804
:105ADC00F083DDF830809DF834909DF83570F1E757
:105AEC00002B35D1A368434508D18DF820908DF853
:105AFC002170BDF82020A3899A42E6D00023A1682A
:105B0C008DF80F300A9804AB0DF10F02FFF7A2FFCE
:105B1C00217985B989B9A36843450ED38DF82090B6
:105B2C008DF82170BDF82020A3899A4205D1049BE1
:105B3C00434502D1C9E70029F9D100230193637BC6
:105B4C0000939DF80F20237B3078FFF71DFEBCE7F8
:105B5C00CDE900552B462A460121F5E708B500781A
:105B6C00FFF7F2FDC0B208BD10B5094B094C02227B
:105B7C0000201A60084B2060A080A071A360FFF782
:105B8C0053FE2046054A0649BDE8104000F020BDF2
:105B9C0064E6032058E603200000FFFFB8E503206D
:105BAC00DD400D0010B50446006808B1FFF71CFD80
:105BBC00204610BD10B58368044613B1032201467C
:105BCC009847204610BD000010B5064C0023204617
:105BDC002360FFF701FD2046034A0449BDE810404D
:105BEC0000F0F6BC68E60320B8E50320B15B0D00BD
:105BFC00F8B506460D468F180024BD420CD033680C
:105C0C0015F8011B9B6830469847031E01DB1C44AA
:105C1C00F3E7002C08BF1C462046F8BD13B504461C
:105C2C00084659B1019100F025FD23680199DB6804
:105C3C000246204602B0BDE81040184702B010BD25
:105C4C0008B5FFF7EBFF08BD03689B68184738B52C
:105C5C000D210546FFF7F8FF0A2104462846FFF7F9
:105C6C00F3FF204438BD30B58BB000238DF82430C1
:105C7C00012A98BF0A2209AC0D46B1FBF2F101FBD7
:105C8C00125303F0FF03092B94BF30333733DBB2CD
:105C9C00AA4204F8013DEFD92146FFF7BFFF0BB034
:105CAC0030BD2DE9F04186B000AF05460E46381DDB
:105CBC00142114463B60FFF75BFE13280ED8391DE8
:105CCC002846FFF7ABFF04461EB12846FFF7BFFF7F
:105CDC00044420461837BD46BDE8F08100F10803A6
:105CEC0023F00703E846ADEB030D2246411C3B684D
:105CFC006846FFF73DFE69462846FFF78FFF0446CE
:105D0C00C546E1E7002340681A461946FFF7D8BD9F
:105D1C00014B024A1A6070476CE603201C720D009E
:105D2C00024B1A68024B1A60704700BF50E5032003
:105D3C0070E603200021FFF77FBD10B50446FFF786
:105D4C0039FF204610BD00000348044A04490023D3
:105D5C00836000F03DBC00BF74E60320B8E503206F
:105D6C00475D0D00014B1860704700BF54E50320E0
:105D7C0008B50B4B43B100F057F903681B69984702
:105D8C00002801DDAFF30080064B43B100F0F6F9BB
:105D9C0003681B699847002801DDAFF3008008BD3C
:105DAC00000000000000000008B5FFF7E1FFFFF75E
:105DBC00FBFB014B186008BDD4E703200248034AE3
:105DCC000349121A00F01CBC00F4032004F4032055
:105DDC0080730D0007B5002300931A466FF077010E
:105DEC00FFF744FD03B05DF804FB000007B54388E2
:105DFC000A2B08D0502B0BD1094B1B684BB103B0AD
:105E0C005DF804EB1847FFF7E5FF03B05DF804FB02
:105E1C00002300931A466FF07701FFF727FDF4E794
:105E2C0088E6032038B5124C1248134D0021FFF7B9
:105E3C00A7FD2368AB42114B0CBF012200221A7044
:105E4C0002D0FFF7BBFF2560FFF79EFB044600F076
:105E5C00EDFB0B4B13B12046AFF30080002108483B
:105E6C00FFF76EFDBDE8384006480021FFF7F4BC93
:105E7C0000F40320715D0D001E1C279A84E603209C
:105E8C0000000000F95D0D00704710B518210446A4
:105E9C0000F0A3FB204610BDF0B5037D062B8DB0A2
:105EAC000E4600F104074FF0000412D000F1080573
:105EBC0015F8011D0A223046FFF7D5FEAF42044407
:105ECC0019D0002CF4D02E213046FFF7BDFE04442F
:105EDC00EEE72F236A4639460A208DF80040FFF77B
:105EEC008BFB684600F0C6FB33680246DB686946EC
:105EFC0030469847044620460DB0F0BD10B5054B12
:105F0C000446112240F8043B002100F087FB204698
:105F1C0010BD00BF44720D000346074A10B543F88C
:105F2C00042B01F1100251F8044B43F8044B91423D
:105F3C00F9D10A781A7010BD44720D0010B59DF895
:105F4C00084044EA032343EA024242EA0161042383
:105F5C004160037510BD000013B5054B0360CB7891
:105F6C0000938B784A780978FFF7E8FF02B010BDF0
:105F7C0044720D0041747047704708B50021007CD5
:105F8C00FFF732FC40EAE07008BD08B50121007C47
:105F9C00FFF72AFC40EAE07008BD08B5007CFFF76B
:105FAC001BFC20EAE07008BD08B5007CFFF70CFC78
:105FBC0020EAE07008BD13B50446007C0191FFF7A0
:105FCC000BFC0028019901DC607C20B1207CFFF7E0
:105FDC0013FC20EAE07002B010BD007CFFF714BC8B
:105FEC0010B51421044600F0F8FA204610BD00004C
:105FFC0010B54FF47A73044608460021C4E9011326
:10600C00044B23600123207463741146FFF7D4FB07
:10601C00204610BD58720D0010B514220446002104
:10602C0000F0FCFA204610BD10B5104C88B003A847
:10603C00FFF7F2FF2178BFF35B8F11F0010111D153
:10604C0020460191FEF72EF8019958B103AA084891
:10605C00FFF7CEFF2046FEF72AF8064A0649044809
:10606C0000F0B6FA024808B010BD00BF8CE6032061
:10607C0090E60320B8E50320855F0D000047000083
:10608C002DE9FF4100241D460F4690460646FFF7BA
:10609C0073FAA5424FF00403ADF80D408DF80C30A7
:1060AC008DF80F40A2BF9DF828308DF80E3003AC50
:1060BC000749009443463A463046A8BF8DF80D5028
:1060CC00FFF752FAB0FA80F0400904B0BDE8F08155
:1060DC0089600D0070474174704708B5007CFFF76C
:1060EC00CBFA20EAE07008BD08B5007CFFF79CFAFB
:1060FC0020EAE07008BD08B5007CFFF7A5FA40EA7D
:10610C00E07008BD08B5007CFFF796FA40EAE07035
:10611C0008BD007CFFF7A0BA37B5457C04462DB10D
:10612C00207C03B0BDE83040FFF776BA007C0191CB
:10613C00FFF7A2FA00280199F2DC284603B030BD23
:10614C0010B51421044600F048FA204610BD00009A
:10615C0010B54FF0000C0446084611464FF47A7205
:10616C00C4E901C2044A22600122207462741A46F6
:10617C00FFF74AFA204610BD88720D0013B50E4C7D
:10618C002178BFF35B8F11F0010112D120460191F0
:10619C00FDF788FF019960B1084A094B0948FFF7E0
:1061AC00D7FF2046FDF783FF074A0849054800F052
:1061BC000FFA044802B010BDA4E60320A8E60320A1
:1061CC002CE70320B0E70320B8E50320E1600D00C5
:1061DC007047F8B5064615460C468F18BC4206D0DB
:1061EC00336814F8011B9B6830469847F6E728463D
:1061FC00F8BD007C0022FFF767BA007C0021FFF796
:10620C006BBA007C0021FFF76FBA007C0021FFF70E
:10621C0073BA007C0021FFF777BA10B5142104463D
:10622C0000F0DBF9204610BD10B54FF47A7304462C
:10623C0008460021C4E90113034B23602074114666
:10624C00FFF772FA204610BDB8720D00007C0022D8
:10625C00FFF71ABA0023007C1A461946FFF71CBA3E
:10626C00007C0022FFF720BAC9B2FFF7F9BF007C0F
:10627C000022FFF721BA0121FFF7F9BF0022406885
:10628C001146FFF715BB002240681146FFF730BBE3
:10629C00002240681146FFF73BBB40680022FFF725
:1062AC002FBB4068002281F00101FFF719BB0023CE
:1062BC0040681A461946FFF70BBB0022406811468E
:1062CC00FFF7E6BA406800220221FFF7E9BA002383
:1062DC0040681A46FFF7D4BA024B04225A60024AAD
:1062EC001A607047C4E70320E0720D000023406879
:1062FC001A46FFF7C5BA406800220221FFF7D0BA50
:10630C00002240681146FFF7C3BA002240681146CC
:10631C00FFF7CEBA002340681A461946FFF7D0BAE9
:10632C00002340681A461946FFF7D2BA406800218C
:10633C00FFF7F6BA40680021FFF7FABA406800226E
:10634C0081F00101FFF7CCBA40680022FFF7D8BA00
:10635C00002240681146FFF7DBBA00224068114664
:10636C00FFF7C6BA2DE9F043002495B016460D464A
:10637C000746FFF7C3FD214618220EA8009400F033
:10638C004DF94023CDE90C3421466B460CAA30461E
:10639C00FFF7C2F8044600284CD102460121686878
:1063AC00FFF786FA0221804622466868FFF780FADA
:1063BC00009E81462146002E3CD000293AD17368BC
:1063CC00022B03D00A2B11D0F669F4E7B8F1000FB9
:1063DC000AD0716906A8043107ADFFF7BDFD0FCDDA
:1063EC003C1D0FC42B6823704146EDE7B9F1000F3B
:1063FC0001D14946E8E77469102201A800F00EF9B2
:10640C0006238DF8143001AD04F108031834186814
:10641C0059682A4603C20833A3421546F7D101A98D
:10642C0006A807ADFFF778FD0FCD3C1D0FC42B68F8
:10643C002370DEE70098FFF767F8384615B0BDE823
:10644C00F0830000024B034A1A6000225A60704726
:10645C00CCE703201C730D00232813B502D90020B0
:10646C0002B010BDA0F10B03022B1AD8174C2178E7
:10647C00BFF35B8F11F001010BD120460191FDF7A9
:10648C0011FE019928B11248FFF7C6FA2046FDF714
:10649C000EFE0F4B1878FFF767F90028DFD10120AB
:1064AC00DEE7012809D800F06BF80021007CFFF72B
:1064BC0033F980F00100C0B2D2E709380128EED8D8
:1064CC00FFF75CFE007CFFF7CFF8F2E744E6032011
:1064DC0048E60320232838B504460D460AD8FF2980
:1064EC0008D0FFF7B9FF28B129462046BDE838404F
:1064FC00FFF71AB838BD38B504460D46FFF71CF83F
:10650C00FF2810D0062804D84D2323FA00F0C30727
:10651C0009D42046FFF7A0FF28B129462046BDE844
:10652C003840FFF711B838BD10B50446FFF704F832
:10653C00031FDBB2012B08D92046FFF78DFF20B1DA
:10654C002046BDE81040FFF707B8002010BD000042
:10655C0038B500232025438014230446038085602E
:10656C0005610649284600F03AF80449606028465F
:10657C0000F035F8E060204638BD00BF50730D00C8
:10658C0030B50F4D2978BFF35B8F11F0010487B044
:10659C0013D12846FDF786FD78B101A8FFF7D8FF87
:1065AC0001AA21460748FFF73FFE2846FDF77FFD6D
:1065BC00054A0649034800F00BF8024807B030BD05
:1065CC00D8E70320DCE70320B8E50320DD610D00EC
:1065DC000B460146184600F005B8FDF756BDFDF711
:1065EC0052BD000010B5054C13462CB10A460146AD
:1065FC000220AFF3008010BD2046FCE70000000035
:10660C000A44914200F1FF3300D1704710B511F8E4
:10661C00014B03F8014F9142F9D110BD02440346DE
:10662C00934200D1704703F8011BF9E738B50D4BC5
:10663C001D68AB6B04467BB91820FFF789F90A4A31
:10664C000A4BA863C0E90023094B83600B238381A9
:10665C0001220023C0E90423AB6B00221C615A61A8
:10666C0038BD00BF54E503200E33CDAB34126DE6BC
:10667C00ECDE0500034613F8012B002AFBD1181A97
:10668C00013870471D400D0059400D0081400D0030
:10669C0085400D000000000064656661756C742017
:1066AC00004D5342004C5342003C535049536574C7
:1066BC0074696E67732064656661756C743E003C2A
:1066CC0053504953657474696E677320257325752F
:1066DC00202573204D4F444525753E0000000000D9
:1066EC00003E5B4F5B3E3E6B4F6B3E1C3E7C3E1C4C
:1066FC00183C7E3C181C577D571C1C5E7F5E1C0092
:10670C00183C1800FFE7C3E7FF0018241800FFE748
:10671C00DBE7FF30483A060E2629792926407F050B
:10672C000507407F05253F5A3CE73C5A7F3E1C1C21
:10673C0008081C1C3E7F14227F22145F5F005F5FE1
:10674C0006097F017F006689956A606060606094CD
:10675C00A2FFA29408047E040810207E20100808D2
:10676C002A1C08081C2A08081E101010100C1E0CDD
:10677C001E0C30383E3830060E3E0E06000000006F
:10678C000000005F00000007000700147F147F1456
:10679C00242A7F2A1223130864623649562050009B
:1067AC0008070300001C2241000041221C002A1C87
:1067BC007F1C2A08083E0808008070300008080872
:1067CC000808000060600020100804023E51494592
:1067DC003E00427F400072494949462141494D33B0
:1067EC001814127F1027454545393C4A4949314117
:1067FC00211109073649494936464949291E0000E5
:10680C001400000040340000000814224114141439
:10681C001414004122140802015909063E415D5925
:10682C004E7C1211127C7F494949363E414141222E
:10683C007F4141413E7F494949417F090909013E58
:10684C00414151737F0808087F00417F410020407F
:10685C00413F017F081422417F404040407F021C91
:10686C00027F7F0408107F3E4141413E7F090909A8
:10687C00063E4151215E7F09192946264949493274
:10688C0003017F01033F4040403F1F2040201F3F3A
:10689C004038403F631408146303047804036159BF
:1068AC00494D43007F414141020408102000414101
:1068BC00417F0402010204404040404000030708AD
:1068CC000020545478407F284444383844444428A9
:1068DC00384444287F385454541800087E09021850
:1068EC00A4A49C787F0804047800447D40002040D8
:1068FC00403D007F1028440000417F40007C04781C
:10690C0004787C080404783844444438FC18242463
:10691C001818242418FC7C080404084854545424E3
:10692C0004043F44243C4040207C1C2040201C3C60
:10693C004030403C44281028444C9090907C446457
:10694C00544C4400083641000000770000004136EA
:10695C00080002010204023C2623263C1EA1A16170
:10696C00123A4040207A38545455592155557941A2
:10697C002254547842215554784020545579400C77
:10698C001E5272123955555559395454545939555A
:10699C005454580000457C410002457D420001459D
:1069AC007C407D1211127DF0282528F07C54554531
:1069BC00002054547C547C0A097F4932494949329D
:1069CC003A4444443A324A4848303A4141217A3AAE
:1069DC0042402078009DA0A07D3D4242423D3D407A
:1069EC0040403D3C24FF2424487E4943662B2FFC29
:1069FC002F2BFF0929F620C0887E090320545479D7
:106A0C00410000447D413048484A32384040227AA7
:106A1C00007A0A0A727D0D19317D2629292F282624
:106A2C002929292630484D4020380808080808082C
:106A3C000808382F10C8ACBA2F102834FA00007B85
:106A4C00000008142A142222142A14085500550098
:106A5C0055AA55AA55AAFF55FF55FF000000FF0087
:106A6C00101010FF00141414FF001010FF00FF1082
:106A7C0010F010F0141414FC001414F700FF0000B4
:106A8C00FF00FF1414F404FC141417101F10101F33
:106A9C00101F1414141F00101010F0000000001F21
:106AAC00101010101F10101010F010000000FF102C
:106ABC001010101010101010FF10000000FF140028
:106ACC0000FF00FF00001F10170000FC04F414145A
:106ADC001710171414F404F40000FF00F714141426
:106AEC0014141414F700F7141414171410101F10A6
:106AFC001F141414F4141010F010F000001F101FC9
:106B0C000000001F14000000FC140000F010F01036
:106B1C0010FF10FF141414FF141010101F000000AD
:106B2C0000F010FFFFFFFFFFF0F0F0F0F0FFFFFFB1
:106B3C000000000000FFFF0F0F0F0F0F3844443808
:106B4C0044FC4A4A4A347E02020606027E027E0257
:106B5C0063554941633844443C04407E201E200662
:106B6C00027E020299A5E7A5991C2A492A1C4C729F
:106B7C0001724C304A4D4D303048784830BC625A26
:106B8C00463D3E494949007E0101017E2A2A2A2AB6
:106B9C002A44445F444440514A444040444A514092
:106BAC000000FF0103E080FF000008086B6B083653
:106BBC0012362436060F090F0600001818000000C4
:106BCC001010003040FF0101001F01011E00191DB3
:106BDC001712003C3C3C3C00000000000000000090
:106BEC0000000000000000000000000051490D00F2
:106BFC00FD5B0D009D400D0059430D005B430D00E6
:106C0C008D430D0069430D007B430D009D420D002B
:106C1C0059430D0085450D00FF440D00A5430D00A3
:106C2C00E3430D001D440D0063440D0001450D00B0
:106C3C007F440D000000000000000000614A0D00C0
:106C4C00814A0D0051490D00FD5B0D00454C0D00B6
:106C5C0059430D005B430D008D430D0069430D003E
:106C6C007B430D009D420D0059430D0085450D00E1
:106C7C00FF4D0D0093530D0045530D001D440D00A9
:106C8C0063440D0001450D007F440D000000000021
:106C9C000000000049420D001D420D001F420D0076
:106CAC000000000000018000000000000000000057
:106CBC00038000000000000000000007C00000007E
:106CCC0000000000000007C00000000000000000F1
:106CDC00000FC00000000000000000001FE00000DA
:106CEC00000000000000001FE00000000000000099
:106CFC0000003FE00000000000000000003FF0003A
:106D0C0000000000000000007FF000000000000008
:106D1C00001FF87FF0000000000000003FFE7FF035
:106D2C00000000000000003FFF7FF00000000000AA
:106D3C0000001FFFFBE0000000000000000FFFF947
:106D4C00FFC00000000000000FFFF9FFF80000007A
:106D5C0000000007FFF1FFFF00000000000003FC33
:106D6C0073FFFF80000000000001FE3FFFFF80006A
:106D7C000000000000FF1E0FFF00000000000000DC
:106D8C007FFE1FFC000000000000003FFFFFF8002A
:106D9C000000000000000FDFFFE00000000000001A
:106DAC00001F19FFC0000000000000003F3CFF0066
:106DBC00000000000000007E7CF8000000000000D5
:106DCC0000007FFE7C0000000000000000FFFFFCC4
:106DDC000000000000000000FFFFFE0000000000AB
:106DEC00000000FFFFFE0000000000000001FFEFAC
:106DFC00FE0000000000000001FFCFFE00000000BC
:106E0C0000000003FF07FE0000000000000003FC70
:106E1C0007FE0000000000000003F003FE0000006D
:106E2C0000000000018000FE0000000000000000D7
:106E3C0000007E000000000000000000003E00008A
:106E4C0000000000000000000C0000000000000723
:106E5C008000FC000003C0000000078001FC000063
:106E6C0003C0000000078001FC000003C00000000C
:106E7C00078001E00000001E000000078001E00018
:106E8C0000001E007FE3F79FF9FDE7787BDFC0FF72
:106E9C00F7FFBFFDFDFF787BDFC0FFF7FFBFFDFDF8
:106EAC00FF787BDFC0F0F787BC3DE1FF787BDE002D
:106EBC00F0F787BC3DE1F0787BDE0000F787803D82
:106ECC00E1E0787BDE007FF7879FFDE1E0787BDEF9
:106EDC0000FFF787BFFDE1E0787BDE00F0F787BCB1
:106EEC003DE1E0787BDE00F0F787BC3DE1E0787BAC
:106EFC00DE00F0F787BC3DE1E0787BDE00FFF7FFBA
:106F0C00BFFDE1E07FFBDFC0FFF7FFBFFDE1E07FEE
:106F1C00FBDFC07CF3F39F3DE1E03E7BCFC0000084
:106F2C00000000000000000000FFFFFFFFFFFFFF5C
:106F3C00FFFFFFC0FFFFFFFFFD68DB111A31C0FF31
:106F4C00FFFFFFFD2B5AFB6AEFC0FFFFFFFFFD4B5E
:106F5C005B3B1A33C0FFFFFFFFFD6B5BDB6AFDC0C1
:106F6C0000006000000000000000000000000000B5
:106F7C0000E0000000000000000000000000000124
:106F8C00E00000000000000000000000000001F024
:106F9C000000000000000000000000000003F000F2
:106FAC0000000000000000000000000007F00000DE
:106FBC00000000000000000000000007F8000000C6
:106FCC00000000000000000000000FF800000003AB
:106FDC00C0007E000001E0007F0FF800000003C03D
:106FEC0000FE000001E000FFEFF800000003C0000D
:106FFC00FE000001E000FFFFF800000003C000F0FD
:10700C000000000F007FFE7FC0000003C000F000F6
:10701C0000000F003FFE7FF83FF1FBCFFCFEF3BCFE
:10702C003DEFE01FFE7FFF7FFBFFDFFEFEFFBC3D61
:10703C00EFE01FC6FFFF7FFBFFDFFEFEFFBC3DEF57
:10704C00E00FE3C7FE787BC3DE1EF0FFBC3DEF0014
:10705C0007FF87FC787BC3DE1EF0F83C3DEF000198
:10706C00FFFFF0007BC3C01EF0F03C3DEF0001F3CE
:10707C007FE03FFBC3CFFEF0F03C3DEF0003E33F6E
:10708C00807FFBC3DFFEF0F03C3DEF0007E73C00E8
:10709C00787BC3DE1EF0F03C3DEF0007FFBE0078AE
:1070AC007BC3DE1EF0F03C3DEF0007FFFE00787B5B
:1070BC00C3DE1EF0F03C3DEF000FFFFE007FFBFF38
:1070CC00DFFEF0F03FFDEFE00FFFFF007FFBFFDF87
:1070DC00FEF0F03FFDEFE00FF9FF003E79F9CF9E97
:1070EC00F0F01F3DE7E01FF1FF0000000000000082
:1070FC0000000000001F80FF007FFFFFFFFFFFFF6D
:10710C00FFFFFFE01C007F007FFFFFFFFEB46D88D8
:10711C008D18E000001F007FFFFFFFFE95AD7DB5D1
:10712C0077E000000F007FFFFFFFFEA5AD9D8D19DE
:10713C00E0000006007FFFFFFFFEB5ADEDB57EE081
:10714C000000000000000000194C0D00314C0D0037
:10715C0051490D00FD5B0D00454C0D0059430D00D0
:10716C005B430D008D430D0069430D007B430D0007
:10717C009D420D0059430D0085450D00FF4D0D003E
:10718C0093530D0045530D001D440D0063440D0039
:10719C0001450D007F440D000080C0E0F0F8FCFEBE
:1071AC00000103070F1F3F7FAED580A8D300408D91
:1071BC002000A1C8DB40A4A62EAFDA02818FDA1220
:1071CC0081DA02812200FF21000000000000000093
:1071DC0000000000FB590D00F1590D00E7590D009E
:1071EC00DD590D00D1590D00C5590D0039630D0045
:1071FC0041630D00B9590D00B1590D00A7590D008F
:10720C009D590D0071630D000008101820283038AE
:10721C006170700025592D256D2D25645425483A33
:10722C00254D3A2553257A0061736374696D6500A9
:10723C000000000000000000A55E0D00955E0D0032
:10724C00975E0D000000000000000000855F0D003F
:10725C00ED5F0D00C35F0D00FD5B0D00B55F0D0014
:10726C00875F0D00975F0D00E75F0D00A75F0D00B6
:10727C00815F0D000000000000000000E1600D00C7
:10728C004D610D0025610D00FD5B0D00F5600D00DD
:10729C0011610D0003610D001F610D00E3600D0015
:1072AC00E7600D000000000000000000DD610D0033
:1072BC0027620D00FF610D00DF610D0007620D00FC
:1072CC000F620D0017620D001F620D000000000020
:1072DC0000000000DB620D00D1620D00C7620D00E2
:1072EC0089620D00115D0D00BB620D0039630D004C
:1072FC0041630D00AF620D00A7620D009D620D0091
:10730C0093620D0071630D0000000000000000008E
:10731C00F9620D0003630D000D630D0017630D0082
:10732C0021630D002D630D0039630D0041630D00C9
:10733C0049630D0055630D005D630D0067630D001F
:10734C0071630D0000000000C5410D00055A0D00D1
:10735C00755B0D00D55B0D001D5D0D002D5D0D00E9
:10736C00555D0D00E5620D0051640D00000000003C
:04737C00000000000D
:047380000000000009
:1073840034720D0058E503200000000000000000E6
:1073940000000000000000000000000000000000E9
:1073A40000000000000000000000000000000000D9
:1073B40000000000000000000000000000000000C9
:1073C40000000000000000000000000000000000B9
:1073D40000000000000000000000000000000000A9
:0873E4000000000000000000A1
:1073EC00FFFFFFFF00000102030405060708090A5E
:1073FC000B0C0D0E0F101112131415161718191A59
:08740C001B1C1D1E1F2028009F
:047414007856341260
:04000003D000401CCD
:00000001FF
